{
  "_format": "hh-sol-artifact-1",
  "contractName": "CsvCore",
  "sourceName": "contracts/CsvCore.sol",
  "abi": [
    {
      "inputs": [
        {
          "internalType": "uint256",
          "name": "value",
          "type": "uint256"
        },
        {
          "internalType": "uint256",
          "name": "length",
          "type": "uint256"
        }
      ],
      "name": "StringsInsufficientHexLength",
      "type": "error"
    },
    {
      "anonymous": false,
      "inputs": [
        {
          "indexed": true,
          "internalType": "address",
          "name": "owner",
          "type": "address"
        },
        {
          "indexed": false,
          "internalType": "address",
          "name": "projectTokenAddress",
          "type": "address"
        }
      ],
      "name": "ProjectTokenCreated",
      "type": "event"
    },
    {
      "inputs": [
        {
          "internalType": "uint256",
          "name": "",
          "type": "uint256"
        }
      ],
      "name": "coreContractEvents",
      "outputs": [
        {
          "internalType": "string",
          "name": "",
          "type": "string"
        }
      ],
      "stateMutability": "view",
      "type": "function"
    },
    {
      "inputs": [
        {
          "internalType": "address",
          "name": "owner",
          "type": "address"
        }
      ],
      "name": "createCarbonCreditToken",
      "outputs": [
        {
          "internalType": "address",
          "name": "",
          "type": "address"
        }
      ],
      "stateMutability": "nonpayable",
      "type": "function"
    },
    {
      "inputs": [],
      "name": "getCoreContractEvents",
      "outputs": [
        {
          "internalType": "string[]",
          "name": "",
          "type": "string[]"
        }
      ],
      "stateMutability": "view",
      "type": "function"
    },
    {
      "inputs": [
        {
          "internalType": "address",
          "name": "owner",
          "type": "address"
        }
      ],
      "name": "getProjectTokensByOwner",
      "outputs": [
        {
          "internalType": "address[]",
          "name": "",
          "type": "address[]"
        }
      ],
      "stateMutability": "view",
      "type": "function"
    },
    {
      "inputs": [
        {
          "internalType": "address",
          "name": "",
          "type": "address"
        },
        {
          "internalType": "uint256",
          "name": "",
          "type": "uint256"
        }
      ],
      "name": "projectTokensByOwner",
      "outputs": [
        {
          "internalType": "address",
          "name": "",
          "type": "address"
        }
      ],
      "stateMutability": "view",
      "type": "function"
    }
  ],
  "bytecode": "0x608060405234801561001057600080fd5b506133f2806100206000396000f3fe60806040523480156200001157600080fd5b50600436106200005e5760003560e01c806322634bc514620000635780632c43b3be1462000092578063637a80a414620000c257806375c9d82714620000db578063b235f15e14620000f2575b600080fd5b6200007a62000074366004620006b4565b62000118565b60405162000089919062000722565b60405180910390f35b620000a9620000a33660046200075b565b620001cd565b6040516001600160a01b03909116815260200162000089565b620000cc62000358565b60405162000089919062000779565b620000a9620000ec366004620007e1565b6200043b565b62000109620001033660046200075b565b62000474565b6040516200008991906200080e565b600181815481106200012957600080fd5b90600052602060002001600091509050805462000146906200085d565b80601f016020809104026020016040519081016040528092919081815260200182805462000174906200085d565b8015620001c55780601f106200019957610100808354040283529160200191620001c5565b820191906000526020600020905b815481529060010190602001808311620001a757829003601f168201915b505050505081565b6000333214620002175760405162461bcd60e51b815260206004820152601060248201526f13db9b1e481153d048185b1b1bddd95960821b60448201526064015b60405180910390fd5b6000826040516200022890620006a6565b6001600160a01b039091168152602001604051809103906000f08015801562000255573d6000803e3d6000fd5b506001600160a01b03848116600090815260208181526040822080546001810182559083529082200180546001600160a01b03191692841692909217909155909150620002a284620004ea565b620002ad83620004ea565b604051602001620002c092919062000899565b60408051601f198184030181529190526001805480820182556000919091529091507fb10e2d527612073b26eecdfd717e6a320cf44b4afac2b0732d9fcbe2b7fa0cf6016200031082826200096b565b506040516001600160a01b0383811682528516907fbde6470ed84b97c48ffa3f164543649a70dcb88af857fe9e429ae6470c1af6509060200160405180910390a25092915050565b60606001805480602002602001604051908101604052809291908181526020016000905b82821015620004325783829060005260206000200180546200039e906200085d565b80601f0160208091040260200160405190810160405280929190818152602001828054620003cc906200085d565b80156200041d5780601f10620003f1576101008083540402835291602001916200041d565b820191906000526020600020905b815481529060010190602001808311620003ff57829003601f168201915b5050505050815260200190600101906200037c565b50505050905090565b600060205281600052604060002081815481106200045857600080fd5b6000918252602090912001546001600160a01b03169150829050565b6001600160a01b03811660009081526020818152604091829020805483518184028101840190945280845260609392830182828015620004de57602002820191906000526020600020905b81546001600160a01b03168152600190910190602001808311620004bf575b50505050509050919050565b6060620005026001600160a01b038316601462000508565b92915050565b60608260006200051a84600262000a4e565b6200052790600262000a68565b67ffffffffffffffff81111562000542576200054262000900565b6040519080825280601f01601f1916602001820160405280156200056d576020820181803683370190505b509050600360fc1b816000815181106200058b576200058b62000a7e565b60200101906001600160f81b031916908160001a905350600f60fb1b81600181518110620005bd57620005bd62000a7e565b60200101906001600160f81b031916908160001a9053506000620005e385600262000a4e565b620005f090600162000a68565b90505b600181111562000672576f181899199a1a9b1b9c1cb0b131b232b360811b83600f166010811062000628576200062862000a7e565b1a60f81b82828151811062000641576200064162000a7e565b60200101906001600160f81b031916908160001a90535060049290921c916200066a8162000a94565b9050620005f3565b5081156200069e5760405163e22e27eb60e01b815260048101869052602481018590526044016200020e565b949350505050565b61290e8062000aaf83390190565b600060208284031215620006c757600080fd5b5035919050565b60005b83811015620006eb578181015183820152602001620006d1565b50506000910152565b600081518084526200070e816020860160208601620006ce565b601f01601f19169290920160200192915050565b602081526000620007376020830184620006f4565b9392505050565b80356001600160a01b03811681146200075657600080fd5b919050565b6000602082840312156200076e57600080fd5b62000737826200073e565b600060208083016020845280855180835260408601915060408160051b87010192506020870160005b82811015620007d457603f19888603018452620007c1858351620006f4565b94509285019290850190600101620007a2565b5092979650505050505050565b60008060408385031215620007f557600080fd5b62000800836200073e565b946020939093013593505050565b6020808252825182820181905260009190848201906040850190845b81811015620008515783516001600160a01b0316835292840192918401916001016200082a565b50909695505050505050565b600181811c908216806200087257607f821691505b6020821081036200089357634e487b7160e01b600052602260045260246000fd5b50919050565b60008351620008ad818460208801620006ce565b600160fd1b9083018181527531b932b0ba32b21030903732bb90383937b532b1ba1d60511b600182015260178101919091528351620008f4816018840160208801620006ce565b01601801949350505050565b634e487b7160e01b600052604160045260246000fd5b601f82111562000966576000816000526020600020601f850160051c81016020861015620009415750805b601f850160051c820191505b8181101562000962578281556001016200094d565b5050505b505050565b815167ffffffffffffffff81111562000988576200098862000900565b620009a0816200099984546200085d565b8462000916565b602080601f831160018114620009d85760008415620009bf5750858301515b600019600386901b1c1916600185901b17855562000962565b600085815260208120601f198616915b8281101562000a0957888601518255948401946001909101908401620009e8565b508582101562000a285787850151600019600388901b60f8161c191681555b5050505050600190811b01905550565b634e487b7160e01b600052601160045260246000fd5b808202811582820484141762000502576200050262000a38565b8082018082111562000502576200050262000a38565b634e487b7160e01b600052603260045260246000fd5b60008162000aa65762000aa662000a38565b50600019019056fe60806040526000600755633b9aca006008553480156200001e57600080fd5b506040516200290e3803806200290e833981016040819052620000419162000104565b60408051602081019091526000815281906200005d81620000a0565b506001600160a01b0381166200008d57604051631e4fbdf760e01b81526000600482015260240160405180910390fd5b6200009881620000b2565b5050620002a9565b6002620000ae8282620001dd565b5050565b600580546001600160a01b038381166001600160a01b0319831681179093556040519116919082907f8be0079c531659141344cd1fd0a4f28419497f9722a3daafe3b4186f6b6457e090600090a35050565b6000602082840312156200011757600080fd5b81516001600160a01b03811681146200012f57600080fd5b9392505050565b634e487b7160e01b600052604160045260246000fd5b600181811c908216806200016157607f821691505b6020821081036200018257634e487b7160e01b600052602260045260246000fd5b50919050565b601f821115620001d8576000816000526020600020601f850160051c81016020861015620001b35750805b601f850160051c820191505b81811015620001d457828155600101620001bf565b5050505b505050565b81516001600160401b03811115620001f957620001f962000136565b62000211816200020a84546200014c565b8462000188565b602080601f831160018114620002495760008415620002305750858301515b600019600386901b1c1916600185901b178555620001d4565b600085815260208120601f198616915b828110156200027a5788860151825594840194600190910190840162000259565b5085821015620002995787850151600019600388901b60f8161c191681555b5050505050600190811b01905550565b61265580620002b96000396000f3fe6080604052600436106101655760003560e01c8063715018a6116100d1578063cc9076121161008a578063f242432a11610064578063f242432a14610437578063f2fde38b14610457578063f3ab90c314610477578063f5298aca1461048d57600080fd5b8063cc907612146103e2578063dd91134914610402578063e985e9c51461041757600080fd5b8063715018a6146103225780637cd1cf5a146103375780638da5cb5b14610357578063a22cb4651461037f578063a90b538e1461039f578063bd85b039146103b557600080fd5b80634979a72a116101235780634979a72a146102445780634e1273f4146102645780634f558e79146102915780635b43a8d8146102c05780636711d7e3146102e05780636b20c4541461030257600080fd5b8062fdd58e1461016a57806301ffc9a71461019d5780630c4dfe3f146101cd5780630e89341c146101e257806318160ddd1461020f5780632eb2c2d614610224575b600080fd5b34801561017657600080fd5b5061018a610185366004611b6c565b6104ad565b6040519081526020015b60405180910390f35b3480156101a957600080fd5b506101bd6101b8366004611bac565b6104d5565b6040519015158152602001610194565b6101e06101db366004611bd0565b610525565b005b3480156101ee57600080fd5b506102026101fd366004611bd0565b61074d565b6040516101949190611c39565b34801561021b57600080fd5b5060045461018a565b34801561023057600080fd5b506101e061023f366004611d96565b6107e1565b34801561025057600080fd5b506101e061025f366004611bd0565b610848565b34801561027057600080fd5b5061028461027f366004611e40565b610901565b6040516101949190611f3c565b34801561029d57600080fd5b506101bd6102ac366004611bd0565b600090815260036020526040902054151590565b3480156102cc57600080fd5b506101e06102db366004611bd0565b6109ce565b3480156102ec57600080fd5b506102f5610aa3565b6040516101949190611f4f565b34801561030e57600080fd5b506101e061031d366004611fb3565b610b7c565b34801561032e57600080fd5b506101e0610be0565b34801561034357600080fd5b50610202610352366004611bd0565b610bf4565b34801561036357600080fd5b506005546040516001600160a01b039091168152602001610194565b34801561038b57600080fd5b506101e061039a366004612027565b610ca0565b3480156103ab57600080fd5b5061018a60075481565b3480156103c157600080fd5b5061018a6103d0366004611bd0565b60009081526003602052604090205490565b3480156103ee57600080fd5b506101e06103fd366004611bd0565b610caf565b34801561040e57600080fd5b506101e0610da5565b34801561042357600080fd5b506101bd610432366004612063565b610e71565b34801561044357600080fd5b506101e0610452366004612096565b610e9f565b34801561046357600080fd5b506101e06104723660046120fb565b610efe565b34801561048357600080fd5b5061018a60085481565b34801561049957600080fd5b506101e06104a8366004612116565b610f3c565b6000818152602081815260408083206001600160a01b03861684529091529020545b92915050565b60006001600160e01b03198216636cdb3d1360e11b148061050657506001600160e01b031982166303a24d0760e21b145b806104cf57506301ffc9a760e01b6001600160e01b03198316146104cf565b33321461056c5760405162461bcd60e51b815260206004820152601060248201526f13db9b1e481153d048185b1b1bddd95960821b60448201526064015b60405180910390fd5b60006008548261057c919061215f565b9050803410156105c25760405162461bcd60e51b8152602060048201526011602482015270125b98dbdc9c9958dd081c185e5b595b9d607a1b6044820152606401610563565b816105e06105d86005546001600160a01b031690565b6007546104ad565b101561063d5760405162461bcd60e51b815260206004820152602660248201527f4e6f7420656e6f756768206372656469747320696e20636f6e747261637420746044820152651bc81cd95b1b60d21b6064820152608401610563565b61066c6106526005546001600160a01b031690565b336007548560405180602001604052806000815250610f72565b803411156106ac57336108fc6106828334612176565b6040518115909202916000818181858888f193505050501580156106aa573d6000803e3d6000fd5b505b60006106b733611000565b6106c084611016565b6040516020016106d1929190612189565b60408051601f19818403018152919052600680546001810182556000919091529091506000805160206126008339815191520161070e8282612273565b5060408051338152602081018590527f7639281962d02deabefc58bc6006259866561bcd1dca7ca6c7dfb9e2d049f474910160405180910390a1505050565b60606002805461075c906121f1565b80601f0160208091040260200160405190810160405280929190818152602001828054610788906121f1565b80156107d55780601f106107aa576101008083540402835291602001916107d5565b820191906000526020600020905b8154815290600101906020018083116107b857829003601f168201915b50505050509050919050565b336001600160a01b038616811480159061080257506108008682610e71565b155b156108335760405163711bec9160e11b81526001600160a01b03808316600483015287166024820152604401610563565b61084086868686866110a9565b505050505050565b610850611110565b6008819055600061087161086c6005546001600160a01b031690565b611000565b61087a83611016565b60405160200161088b929190612333565b60408051601f1981840301815291905260068054600181018255600091909152909150600080516020612600833981519152016108c88282612273565b506040518281527f078c07bf84d86b0653036a4fb4c988e6747f4b804731a2f4ede1d22c2845d9b9906020015b60405180910390a15050565b606081518351146109325781518351604051635b05999160e01b815260048101929092526024820152604401610563565b6000835167ffffffffffffffff81111561094e5761094e611c4c565b604051908082528060200260200182016040528015610977578160200160208202803683370190505b50905060005b84518110156109c6576020808202860101516109a1906020808402870101516104ad565b8282815181106109b3576109b361239d565b602090810291909101015260010161097d565b509392505050565b6109d6611110565b610a046109eb6005546001600160a01b031690565b600754836040518060200160405280600081525061113d565b6000610a1b61086c6005546001600160a01b031690565b610a2483611016565b604051602001610a359291906123b3565b60408051601f198184030181529190526006805460018101825560009190915290915060008051602061260083398151915201610a728282612273565b506040518281527f0ed03a4fd164b7d3b737caa193db590eee60b8ade2d7e49330bd32ee413f110c906020016108f5565b60606006805480602002602001604051908101604052809291908181526020016000905b82821015610b73578382906000526020600020018054610ae6906121f1565b80601f0160208091040260200160405190810160405280929190818152602001828054610b12906121f1565b8015610b5f5780601f10610b3457610100808354040283529160200191610b5f565b820191906000526020600020905b815481529060010190602001808311610b4257829003601f168201915b505050505081526020019060010190610ac7565b50505050905090565b6001600160a01b0383163314801590610b9c5750610b9a8333610e71565b155b15610bd057335b60405163711bec9160e11b81526001600160a01b0391821660048201529084166024820152604401610563565b610bdb83838361119a565b505050565b610be8611110565b610bf260006111e0565b565b60068181548110610c0457600080fd5b906000526020600020016000915090508054610c1f906121f1565b80601f0160208091040260200160405190810160405280929190818152602001828054610c4b906121f1565b8015610c985780601f10610c6d57610100808354040283529160200191610c98565b820191906000526020600020905b815481529060010190602001808311610c7b57829003601f168201915b505050505081565b610cab338383611232565b5050565b80610cbc336007546104ad565b1015610cff5760405162461bcd60e51b81526020600482015260126024820152714e6f7420656e6f756768206372656469747360701b6044820152606401610563565b610d0c33600754836112c8565b6000610d1733611000565b610d2083611016565b604051602001610d319291906123fa565b60408051601f198184030181529190526006805460018101825560009190915290915060008051602061260083398151915201610d6e8282612273565b5060408051338152602081018490527f775800aada81e30e0943431137c4bfd3765faa8e987ae1f2aca9992fe95ecd4491016108f5565b610dad611110565b60078054906000610dbd83612464565b91905055506000610dd961086c6005546001600160a01b031690565b610de4600754611016565b604051602001610df592919061247d565b60408051601f198184030181529190526006805460018101825560009190915290915060008051602061260083398151915201610e328282612273565b507f35905a9e1b161a9ad031053b33e19b1f8dc4966ab0f98cc0bd936d96433353ca600754604051610e6691815260200190565b60405180910390a150565b6001600160a01b03918216600090815260016020908152604080832093909416825291909152205460ff1690565b336001600160a01b0386168114801590610ec05750610ebe8682610e71565b155b15610ef15760405163711bec9160e11b81526001600160a01b03808316600483015287166024820152604401610563565b6108408686868686610f72565b610f06611110565b6001600160a01b038116610f3057604051631e4fbdf760e01b815260006004820152602401610563565b610f39816111e0565b50565b6001600160a01b0383163314801590610f5c5750610f5a8333610e71565b155b15610f675733610ba3565b610bdb8383836112c8565b6001600160a01b038416610f9c57604051632bfa23e760e11b815260006004820152602401610563565b6001600160a01b038516610fc557604051626a0d4560e21b815260006004820152602401610563565b60408051600180825260208201869052818301908152606082018590526080820190925290610ff7878784848761132c565b50505050505050565b60606104cf6001600160a01b038316601461137f565b60606000611023836114ff565b600101905060008167ffffffffffffffff81111561104357611043611c4c565b6040519080825280601f01601f19166020018201604052801561106d576020820181803683370190505b5090508181016020015b600019016f181899199a1a9b1b9c1cb0b131b232b360811b600a86061a8153600a850494508461107757509392505050565b6001600160a01b0384166110d357604051632bfa23e760e11b815260006004820152602401610563565b6001600160a01b0385166110fc57604051626a0d4560e21b815260006004820152602401610563565b611109858585858561132c565b5050505050565b6005546001600160a01b03163314610bf25760405163118cdaa760e01b8152336004820152602401610563565b6001600160a01b03841661116757604051632bfa23e760e11b815260006004820152602401610563565b6040805160018082526020820186905281830190815260608201859052608082019092529061084060008784848761132c565b6001600160a01b0383166111c357604051626a0d4560e21b815260006004820152602401610563565b610bdb83600084846040518060200160405280600081525061132c565b600580546001600160a01b038381166001600160a01b0319831681179093556040519116919082907f8be0079c531659141344cd1fd0a4f28419497f9722a3daafe3b4186f6b6457e090600090a35050565b6001600160a01b03821661125b5760405162ced3e160e81b815260006004820152602401610563565b6001600160a01b03838116600081815260016020908152604080832094871680845294825291829020805460ff191686151590811790915591519182527f17307eab39ab6107e8899845ad3d59bd9653f200f220920489ca2b5937696c31910160405180910390a3505050565b6001600160a01b0383166112f157604051626a0d4560e21b815260006004820152602401610563565b604080516001808252602082018590528183019081526060820184905260a08201909252600060808201818152919291611109918791859085905b611338858585856115d7565b6001600160a01b038416156111095782513390600103611371576020848101519084015161136a8389898585896115e9565b5050610840565b61084081878787878761170d565b606082600061138f84600261215f565b61139a9060026124e7565b67ffffffffffffffff8111156113b2576113b2611c4c565b6040519080825280601f01601f1916602001820160405280156113dc576020820181803683370190505b509050600360fc1b816000815181106113f7576113f761239d565b60200101906001600160f81b031916908160001a905350600f60fb1b816001815181106114265761142661239d565b60200101906001600160f81b031916908160001a905350600061144a85600261215f565b6114559060016124e7565b90505b60018111156114cd576f181899199a1a9b1b9c1cb0b131b232b360811b83600f16601081106114895761148961239d565b1a60f81b82828151811061149f5761149f61239d565b60200101906001600160f81b031916908160001a90535060049290921c916114c6816124fa565b9050611458565b5081156114f75760405163e22e27eb60e01b81526004810186905260248101859052604401610563565b949350505050565b60008072184f03e93ff9f4daa797ed6e38ed64bf6a1f0160401b831061153e5772184f03e93ff9f4daa797ed6e38ed64bf6a1f0160401b830492506040015b6d04ee2d6d415b85acef8100000000831061156a576d04ee2d6d415b85acef8100000000830492506020015b662386f26fc10000831061158857662386f26fc10000830492506010015b6305f5e10083106115a0576305f5e100830492506008015b61271083106115b457612710830492506004015b606483106115c6576064830492506002015b600a83106104cf5760010192915050565b6115e3848484846117f6565b50505050565b6001600160a01b0384163b156108405760405163f23a6e6160e01b81526001600160a01b0385169063f23a6e619061162d9089908990889088908890600401612511565b6020604051808303816000875af1925050508015611668575060408051601f3d908101601f1916820190925261166591810190612556565b60015b6116d1573d808015611696576040519150601f19603f3d011682016040523d82523d6000602084013e61169b565b606091505b5080516000036116c957604051632bfa23e760e11b81526001600160a01b0386166004820152602401610563565b805181602001fd5b6001600160e01b0319811663f23a6e6160e01b14610ff757604051632bfa23e760e11b81526001600160a01b0386166004820152602401610563565b6001600160a01b0384163b156108405760405163bc197c8160e01b81526001600160a01b0385169063bc197c81906117519089908990889088908890600401612573565b6020604051808303816000875af192505050801561178c575060408051601f3d908101601f1916820190925261178991810190612556565b60015b6117ba573d808015611696576040519150601f19603f3d011682016040523d82523d6000602084013e61169b565b6001600160e01b0319811663bc197c8160e01b14610ff757604051632bfa23e760e11b81526001600160a01b0386166004820152602401610563565b6118028484848461193c565b6001600160a01b0384166118ac576000805b83518110156118925760008382815181106118315761183161239d565b6020026020010151905080600360008785815181106118525761185261239d565b60200260200101518152602001908152602001600020600082825461187791906124e7565b90915550611887905081846124e7565b925050600101611814565b5080600460008282546118a591906124e7565b9091555050505b6001600160a01b0383166115e3576000805b835181101561192b5760008382815181106118db576118db61239d565b6020026020010151905080600360008785815181106118fc576118fc61239d565b6020908102919091018101518252810191909152604001600020805491909103905591909101906001016118be565b506004805491909103905550505050565b805182511461196b5781518151604051635b05999160e01b815260048101929092526024820152604401610563565b3360005b8351811015611a71576020818102858101820151908501909101516001600160a01b03881615611a22576000828152602081815260408083206001600160a01b038c168452909152902054818110156119fb576040516303dee4c560e01b81526001600160a01b038a166004820152602481018290526044810183905260648101849052608401610563565b6000838152602081815260408083206001600160a01b038d16845290915290209082900390555b6001600160a01b03871615611a67576000828152602081815260408083206001600160a01b038b16845290915281208054839290611a619084906124e7565b90915550505b505060010161196f565b508251600103611af25760208301516000906020840151909150856001600160a01b0316876001600160a01b0316846001600160a01b03167fc3d58168c5ae7397731d063d5bbf3d657854427343f4c083240f7aacaa2d0f628585604051611ae3929190918252602082015260400190565b60405180910390a45050611109565b836001600160a01b0316856001600160a01b0316826001600160a01b03167f4a39dc06d4c0dbc64b70af90fd698a233a518aa5d07e595d983b8c0526c8f7fb8686604051611b419291906125d1565b60405180910390a45050505050565b80356001600160a01b0381168114611b6757600080fd5b919050565b60008060408385031215611b7f57600080fd5b611b8883611b50565b946020939093013593505050565b6001600160e01b031981168114610f3957600080fd5b600060208284031215611bbe57600080fd5b8135611bc981611b96565b9392505050565b600060208284031215611be257600080fd5b5035919050565b60005b83811015611c04578181015183820152602001611bec565b50506000910152565b60008151808452611c25816020860160208601611be9565b601f01601f19169290920160200192915050565b602081526000611bc96020830184611c0d565b634e487b7160e01b600052604160045260246000fd5b604051601f8201601f1916810167ffffffffffffffff81118282101715611c8b57611c8b611c4c565b604052919050565b600067ffffffffffffffff821115611cad57611cad611c4c565b5060051b60200190565b600082601f830112611cc857600080fd5b81356020611cdd611cd883611c93565b611c62565b8083825260208201915060208460051b870101935086841115611cff57600080fd5b602086015b84811015611d1b5780358352918301918301611d04565b509695505050505050565b600082601f830112611d3757600080fd5b813567ffffffffffffffff811115611d5157611d51611c4c565b611d64601f8201601f1916602001611c62565b818152846020838601011115611d7957600080fd5b816020850160208301376000918101602001919091529392505050565b600080600080600060a08688031215611dae57600080fd5b611db786611b50565b9450611dc560208701611b50565b9350604086013567ffffffffffffffff80821115611de257600080fd5b611dee89838a01611cb7565b94506060880135915080821115611e0457600080fd5b611e1089838a01611cb7565b93506080880135915080821115611e2657600080fd5b50611e3388828901611d26565b9150509295509295909350565b60008060408385031215611e5357600080fd5b823567ffffffffffffffff80821115611e6b57600080fd5b818501915085601f830112611e7f57600080fd5b81356020611e8f611cd883611c93565b82815260059290921b84018101918181019089841115611eae57600080fd5b948201945b83861015611ed357611ec486611b50565b82529482019490820190611eb3565b96505086013592505080821115611ee957600080fd5b50611ef685828601611cb7565b9150509250929050565b60008151808452602080850194506020840160005b83811015611f3157815187529582019590820190600101611f15565b509495945050505050565b602081526000611bc96020830184611f00565b600060208083016020845280855180835260408601915060408160051b87010192506020870160005b82811015611fa657603f19888603018452611f94858351611c0d565b94509285019290850190600101611f78565b5092979650505050505050565b600080600060608486031215611fc857600080fd5b611fd184611b50565b9250602084013567ffffffffffffffff80821115611fee57600080fd5b611ffa87838801611cb7565b9350604086013591508082111561201057600080fd5b5061201d86828701611cb7565b9150509250925092565b6000806040838503121561203a57600080fd5b61204383611b50565b91506020830135801515811461205857600080fd5b809150509250929050565b6000806040838503121561207657600080fd5b61207f83611b50565b915061208d60208401611b50565b90509250929050565b600080600080600060a086880312156120ae57600080fd5b6120b786611b50565b94506120c560208701611b50565b93506040860135925060608601359150608086013567ffffffffffffffff8111156120ef57600080fd5b611e3388828901611d26565b60006020828403121561210d57600080fd5b611bc982611b50565b60008060006060848603121561212b57600080fd5b61213484611b50565b95602085013595506040909401359392505050565b634e487b7160e01b600052601160045260246000fd5b80820281158282048414176104cf576104cf612149565b818103818111156104cf576104cf612149565b6000835161219b818460208801611be9565b600160fd1b90830181815265189bdd59da1d60d21b6001820152600781019190915283516121d0816008840160208801611be9565b67206372656469747360c01b60089290910191820152601001949350505050565b600181811c9082168061220557607f821691505b60208210810361222557634e487b7160e01b600052602260045260246000fd5b50919050565b601f821115610bdb576000816000526020600020601f850160051c810160208610156122545750805b601f850160051c820191505b8181101561084057828155600101612260565b815167ffffffffffffffff81111561228d5761228d611c4c565b6122a18161229b84546121f1565b8461222b565b602080601f8311600181146122d657600084156122be5750858301515b600019600386901b1c1916600185901b178555610840565b600085815260208120601f198616915b82811015612305578886015182559484019460019091019084016122e6565b50858210156123235787850151600019600388901b60f8161c191681555b5050505050600190811b01905550565b60008351612345818460208801611be9565b600160fd1b9083018181527f736574207072696365207065722063726564697420746f000000000000000000600182015260188101919091528351612391816019840160208801611be9565b01601901949350505050565b634e487b7160e01b600052603260045260246000fd5b600083516123c5818460208801611be9565b600160fd1b908301818152651b1a5cdd195960d21b6001820152600781019190915283516121d0816008840160208801611be9565b6000835161240c818460208801611be9565b600160fd1b9083018181526718dbdb9cdd5b595960c21b60018201526009810191909152835161244381600a840160208801611be9565b67206372656469747360c01b600a9290910191820152601201949350505050565b60006001820161247657612476612149565b5060010190565b6000835161248f818460208801611be9565b600160fd1b9083018181527f75706461746564207265706f7274696e6720706572696f6420746f00000000006001820152601c81019190915283516124db81601d840160208801611be9565b01601d01949350505050565b808201808211156104cf576104cf612149565b60008161250957612509612149565b506000190190565b6001600160a01b03868116825285166020820152604081018490526060810183905260a06080820181905260009061254b90830184611c0d565b979650505050505050565b60006020828403121561256857600080fd5b8151611bc981611b96565b6001600160a01b0386811682528516602082015260a06040820181905260009061259f90830186611f00565b82810360608401526125b18186611f00565b905082810360808401526125c58185611c0d565b98975050505050505050565b6040815260006125e46040830185611f00565b82810360208401526125f68185611f00565b9594505050505056fef652222313e28459528d920b65115c16c04f3efc82aaedc97be59f3f377c0d3fa26469706673582212209eb898a451268430e221a0060997152c219ae80dd1ae88bb53fa25dabeb450bb64736f6c63430008180033a26469706673582212206b1215a0ec36cf717f650b71d4797dc40a1a72038a1bb0d37a5d7c5c181952f664736f6c63430008180033",
  "linkReferences": {},
  "deployedLinkReferences": {}
}